{
  "_format": "hh-sol-artifact-1",
  "contractName": "Election",
  "sourceName": "contracts/Election.sol",
  "abi": [
    {
      "anonymous": false,
      "inputs": [
        {
          "indexed": true,
          "internalType": "address",
          "name": "previousOwner",
          "type": "address"
        },
        {
          "indexed": true,
          "internalType": "address",
          "name": "newOwner",
          "type": "address"
        }
      ],
      "name": "OwnershipTransferred",
      "type": "event"
    },
    {
      "inputs": [
        {
          "internalType": "uint256",
          "name": "",
          "type": "uint256"
        }
      ],
      "name": "candidates",
      "outputs": [
        {
          "internalType": "uint256",
          "name": "",
          "type": "uint256"
        }
      ],
      "stateMutability": "view",
      "type": "function"
    },
    {
      "inputs": [],
      "name": "checkRights",
      "outputs": [
        {
          "internalType": "bool",
          "name": "",
          "type": "bool"
        }
      ],
      "stateMutability": "view",
      "type": "function"
    },
    {
      "inputs": [],
      "name": "getCandidates",
      "outputs": [
        {
          "internalType": "uint256[]",
          "name": "",
          "type": "uint256[]"
        }
      ],
      "stateMutability": "view",
      "type": "function"
    },
    {
      "inputs": [],
      "name": "isOpen",
      "outputs": [
        {
          "internalType": "bool",
          "name": "",
          "type": "bool"
        }
      ],
      "stateMutability": "view",
      "type": "function"
    },
    {
      "inputs": [],
      "name": "owner",
      "outputs": [
        {
          "internalType": "address",
          "name": "",
          "type": "address"
        }
      ],
      "stateMutability": "view",
      "type": "function"
    },
    {
      "inputs": [],
      "name": "renounceOwnership",
      "outputs": [],
      "stateMutability": "nonpayable",
      "type": "function"
    },
    {
      "inputs": [],
      "name": "start",
      "outputs": [],
      "stateMutability": "nonpayable",
      "type": "function"
    },
    {
      "inputs": [],
      "name": "stop",
      "outputs": [],
      "stateMutability": "nonpayable",
      "type": "function"
    },
    {
      "inputs": [],
      "name": "totalVotes",
      "outputs": [
        {
          "internalType": "uint256",
          "name": "",
          "type": "uint256"
        }
      ],
      "stateMutability": "view",
      "type": "function"
    },
    {
      "inputs": [
        {
          "internalType": "address",
          "name": "newOwner",
          "type": "address"
        }
      ],
      "name": "transferOwnership",
      "outputs": [],
      "stateMutability": "nonpayable",
      "type": "function"
    },
    {
      "inputs": [
        {
          "internalType": "uint256",
          "name": "candidate",
          "type": "uint256"
        }
      ],
      "name": "vote",
      "outputs": [],
      "stateMutability": "nonpayable",
      "type": "function"
    }
  ],
  "bytecode": "0x6080604052604051806103e00160405280600060ff168152602001600060ff168152602001600060ff168152602001600060ff168152602001600060ff168152602001600060ff168152602001600060ff168152602001600060ff168152602001600060ff168152602001600060ff168152602001600060ff168152602001600060ff168152602001600060ff168152602001600060ff168152602001600060ff168152602001600060ff168152602001600060ff168152602001600060ff168152602001600060ff168152602001600060ff168152602001600060ff168152602001600060ff168152602001600060ff168152602001600060ff168152602001600060ff168152602001600060ff168152602001600060ff168152602001600060ff168152602001600060ff168152602001600060ff168152602001600060ff16815250600290601f61015492919061026f565b506000600360006101000a81548160ff021916908315150217905550600060045534801561018157600080fd5b5061019e6101936101a360201b60201c565b6101ab60201b60201c565b6102de565b600033905090565b60008060009054906101000a900473ffffffffffffffffffffffffffffffffffffffff169050816000806101000a81548173ffffffffffffffffffffffffffffffffffffffff021916908373ffffffffffffffffffffffffffffffffffffffff1602179055508173ffffffffffffffffffffffffffffffffffffffff168173ffffffffffffffffffffffffffffffffffffffff167f8be0079c531659141344cd1fd0a4f28419497f9722a3daafe3b4186f6b6457e060405160405180910390a35050565b8280548282559060005260206000209081019282156102b0579160200282015b828111156102af578251829060ff1690559160200191906001019061028f565b5b5090506102bd91906102c1565b5090565b5b808211156102da5760008160009055506001016102c2565b5090565b610dcf806102ed6000396000f3fe608060405234801561001057600080fd5b50600436106100a95760003560e01c806347535d7b1161007157806347535d7b14610140578063715018a61461015e5780638da5cb5b1461016857806399c9639914610186578063be9a6555146101a4578063f2fde38b146101ae576100a9565b80630121b93f146100ae57806306a49fce146100ca57806307da68f5146100e85780630d15fd77146100f25780633477ee2e14610110575b600080fd5b6100c860048036038101906100c39190610890565b6101ca565b005b6100d26103b8565b6040516100df9190610a35565b60405180910390f35b6100f0610410565b005b6100fa6104a9565b6040516101079190610b12565b60405180910390f35b61012a60048036038101906101259190610890565b6104af565b6040516101379190610b12565b60405180910390f35b6101486104d3565b6040516101559190610a57565b60405180910390f35b6101666104e6565b005b61017061056e565b60405161017d9190610a1a565b60405180910390f35b61018e610597565b60405161019b9190610a57565b60405180910390f35b6101ac6105e0565b005b6101c860048036038101906101c39190610867565b610679565b005b600360009054906101000a900460ff16610219576040517f08c379a000000000000000000000000000000000000000000000000000000000815260040161021090610af2565b60405180910390fd5b60008111801561022e57506002805490508111155b61026d576040517f08c379a000000000000000000000000000000000000000000000000000000000815260040161026490610a92565b60405180910390fd5b6000600160003373ffffffffffffffffffffffffffffffffffffffff1673ffffffffffffffffffffffffffffffffffffffff16815260200190815260200160002054146102ef576040517f08c379a00000000000000000000000000000000000000000000000000000000081526004016102e690610a72565b60405180910390fd5b600160026001836103009190610bcd565b81548110610337577f4e487b7100000000000000000000000000000000000000000000000000000000600052603260045260246000fd5b9060005260206000200160008282546103509190610b77565b9250508190555060018060003373ffffffffffffffffffffffffffffffffffffffff1673ffffffffffffffffffffffffffffffffffffffff168152602001908152602001600020819055506001600460008282546103ae9190610b77565b9250508190555050565b6060600280548060200260200160405190810160405280929190818152602001828054801561040657602002820191906000526020600020905b8154815260200190600101908083116103f2575b5050505050905090565b610418610771565b73ffffffffffffffffffffffffffffffffffffffff1661043661056e565b73ffffffffffffffffffffffffffffffffffffffff161461048c576040517f08c379a000000000000000000000000000000000000000000000000000000000815260040161048390610ad2565b60405180910390fd5b6000600360006101000a81548160ff021916908315150217905550565b60045481565b600281815481106104bf57600080fd5b906000526020600020016000915090505481565b600360009054906101000a900460ff1681565b6104ee610771565b73ffffffffffffffffffffffffffffffffffffffff1661050c61056e565b73ffffffffffffffffffffffffffffffffffffffff1614610562576040517f08c379a000000000000000000000000000000000000000000000000000000000815260040161055990610ad2565b60405180910390fd5b61056c6000610779565b565b60008060009054906101000a900473ffffffffffffffffffffffffffffffffffffffff16905090565b600080600160003373ffffffffffffffffffffffffffffffffffffffff1673ffffffffffffffffffffffffffffffffffffffff1681526020019081526020016000205414905090565b6105e8610771565b73ffffffffffffffffffffffffffffffffffffffff1661060661056e565b73ffffffffffffffffffffffffffffffffffffffff161461065c576040517f08c379a000000000000000000000000000000000000000000000000000000000815260040161065390610ad2565b60405180910390fd5b6001600360006101000a81548160ff021916908315150217905550565b610681610771565b73ffffffffffffffffffffffffffffffffffffffff1661069f61056e565b73ffffffffffffffffffffffffffffffffffffffff16146106f5576040517f08c379a00000000000000000000000000000000000000000000000000000000081526004016106ec90610ad2565b60405180910390fd5b600073ffffffffffffffffffffffffffffffffffffffff168173ffffffffffffffffffffffffffffffffffffffff161415610765576040517f08c379a000000000000000000000000000000000000000000000000000000000815260040161075c90610ab2565b60405180910390fd5b61076e81610779565b50565b600033905090565b60008060009054906101000a900473ffffffffffffffffffffffffffffffffffffffff169050816000806101000a81548173ffffffffffffffffffffffffffffffffffffffff021916908373ffffffffffffffffffffffffffffffffffffffff1602179055508173ffffffffffffffffffffffffffffffffffffffff168173ffffffffffffffffffffffffffffffffffffffff167f8be0079c531659141344cd1fd0a4f28419497f9722a3daafe3b4186f6b6457e060405160405180910390a35050565b60008135905061084c81610d6b565b92915050565b60008135905061086181610d82565b92915050565b60006020828403121561087957600080fd5b60006108878482850161083d565b91505092915050565b6000602082840312156108a257600080fd5b60006108b084828501610852565b91505092915050565b60006108c583836109fc565b60208301905092915050565b6108da81610c01565b82525050565b60006108eb82610b3d565b6108f58185610b55565b935061090083610b2d565b8060005b8381101561093157815161091888826108b9565b975061092383610b48565b925050600181019050610904565b5085935050505092915050565b61094781610c13565b82525050565b600061095a601683610b66565b915061096582610c78565b602082019050919050565b600061097d601b83610b66565b915061098882610ca1565b602082019050919050565b60006109a0602683610b66565b91506109ab82610cca565b604082019050919050565b60006109c3602083610b66565b91506109ce82610d19565b602082019050919050565b60006109e6601083610b66565b91506109f182610d42565b602082019050919050565b610a0581610c3f565b82525050565b610a1481610c3f565b82525050565b6000602082019050610a2f60008301846108d1565b92915050565b60006020820190508181036000830152610a4f81846108e0565b905092915050565b6000602082019050610a6c600083018461093e565b92915050565b60006020820190508181036000830152610a8b8161094d565b9050919050565b60006020820190508181036000830152610aab81610970565b9050919050565b60006020820190508181036000830152610acb81610993565b9050919050565b60006020820190508181036000830152610aeb816109b6565b9050919050565b60006020820190508181036000830152610b0b816109d9565b9050919050565b6000602082019050610b276000830184610a0b565b92915050565b6000819050602082019050919050565b600081519050919050565b6000602082019050919050565b600082825260208201905092915050565b600082825260208201905092915050565b6000610b8282610c3f565b9150610b8d83610c3f565b9250827fffffffffffffffffffffffffffffffffffffffffffffffffffffffffffffffff03821115610bc257610bc1610c49565b5b828201905092915050565b6000610bd882610c3f565b9150610be383610c3f565b925082821015610bf657610bf5610c49565b5b828203905092915050565b6000610c0c82610c1f565b9050919050565b60008115159050919050565b600073ffffffffffffffffffffffffffffffffffffffff82169050919050565b6000819050919050565b7f4e487b7100000000000000000000000000000000000000000000000000000000600052601160045260246000fd5b7f596f752063616e206f6e6c7920766f7465206f6e636500000000000000000000600082015250565b7f43616e646964617465206e756d62657220697320696e76616c69640000000000600082015250565b7f4f776e61626c653a206e6577206f776e657220697320746865207a65726f206160008201527f6464726573730000000000000000000000000000000000000000000000000000602082015250565b7f4f776e61626c653a2063616c6c6572206973206e6f7420746865206f776e6572600082015250565b7f566f74696e6720697320636c6f73656400000000000000000000000000000000600082015250565b610d7481610c01565b8114610d7f57600080fd5b50565b610d8b81610c3f565b8114610d9657600080fd5b5056fea264697066735822122091f5a6a11959124e66a46434cc6877d3e78985a981fac5d9586c8d839d3b871b64736f6c63430008040033",
  "linkReferences": {},
  "deployedLinkReferences": {}
}